S01500002E2F44656275672F4D6F7070656E2E733139FD
S315200000000248854600F004F8FEE7C04600C00120FD
S3152000001090B58DB000AF7860396000F004FF00F035
S31520000020A7FE0121012000F0E4FE1C203B18364AE1
S3152000003012CA12C31188198092789A703B18FB62F3
S3152000004006E0FB6A5A1CFA621B78180000F0B3FE21
S31520000050FB6A1B78002BF4D102210B2000F0C9FE8D
S3152000006010203B18294A12CA12C311881980927887
S315200000709A703B18FB6206E0FB6A5A1CFA621B78F0
S31520000080180000F098FEFB6A1B78002BF4D10121A2
S315200000900A2000F0AEFE312000F08DFE0221142051
S315200000A000F0A7FE322000F086FE00F02EFA00F0C7
S315200000B039FA00F0CFFE164BBB62BB6A1B685B6841
S315200000C0002B00DA01335B105B4240331900BB6A18
S315200000D01B689B68002B00DA01335B105B422033E0
S315200000E01A00BB6A180000F0A1FCBB6A1B6AB86A3A
S315200000F0012204219847BB6A180000F007FD28203A
S3152000010000F037F8F7E7C046F81D0020041E00204F
S31520000110D01D002080B500AF0C4B00221A600C4B7E
S3152000012006221A600B4B00221A60084B05221A6021
S31520000130C046064B1A6880235B021340F9D0034B56
S3152000014000221A60C046BD4680BDC04610E000E0D1
S3152000015014E000E018E000E080B500AFC046BD46E0
S3152000016080BD80B582B000AF7860C046BD4602B083
S3152000017080BD80B582B000AF7860C046BD4602B073
S3152000018080BDC04680B582B000AF0200FB1D1A704C
S31520000190FB1D1B78082B11D002DC002B05D032E08A
S315200001A0102B19D0182B25D02DE0194B1B78DBB23C
S315200001B0174A18218B43DBB2137024E0144B1B78AB
S315200001C0DBB25BB2182293435BB2082213435AB2C6
S315200001D00F4BD2B21A7016E00D4B1B78DBB25BB216
S315200001E0182293435BB2102213435AB2084BD2B261
S315200001F01A7008E0064B1B78DBB2054A18210B4320
S31520000200DBB21370C046C046BD4602B080BDC046B4
S315200002101410024080B500AF234B1B78DBB2224A74
S3152000022040218B43DBB21370204B214A1A601E4BB0
S315200002301B78DBB202221343DBB21B4A01218B431C
S31520000240DBB21370FFF788FFFFF786FF17E0164B28
S315200002501B78DBB2144A40210B43DBB21370FFF745
S315200002607BFFFFF779FF104B1B78DBB20E4A40214C
S315200002708B43DBB21370FFF76FFFFFF76DFF0A4B5F
S315200002801B78DBB25BB2002BE1DB074B1B78DBB2C2
S31520000290054A40210B43DBB21370044B054A1A6012
S315200002A0C046BD4680BDC046141002400010024024
S315200002B0555500005555555580B584B000AF020000
S315200002C0FB1D1A70294B1B78DBB2284A40218B4331
S315200002D0DBB21370264B274A1A60244B1B78DBB2FD
S315200002E0224A03210B43DBB21370FB1D1B78180037
S315200002F0FFF748FFFFF730FFFFF72EFF1B4B1B785A
S31520000300DBB21A4A40210B43DBB21370FFF724FFFE
S31520000310FFF722FF184A0F23FB1812781A70134B87
S315200003201B78DBB2114A40218B43DBB21370104B92
S31520000330124A1A60FB1D1B780822134004D008209D
S31520000340FFF720FFFFF766FFFB1D1B7810221340E7
S3152000035004D01020FFF716FFFFF75CFF0F23FB18D2
S315200003601B781800BD4604B080BDC046141002405C
S3152000037000100240555500001110024055555555A4
S3152000038080B582B000AF0200FB1D1A70BB1D0A1C8F
S315200003901A70234AFB1D1B781370BB1D1B7818008F
S315200003A0FFF7F0FEFFF7D8FEFFF7D6FE1D4B1B78B2
S315200003B0DBB21C4A40210B43DBB21370FFF7CCFEA5
S315200003C0FFF7CAFE174B1B78DBB2164A40218B4338
S315200003D0DBB21370BB1D1B780822134004D0082003
S315200003E0FFF7D0FEFFF716FFBB1D1B781022134028
S315200003F004D01020FFF7C6FEFFF70CFF084B0022A3
S315200004001A70084B1B78DBB2064A40210B43DBB23D
S3152000041013700020FFF7B6FEC046BD4602B080BD71
S31520000420151002401410024080B582B000AF0200C1
S31520000430FB1D1A70BB1D0A1C1A70104B1B78DBB2F1
S315200004400E4A40218B43DBB21370BB1D1B7818006C
S31520000450FFF798FE094B1B78DBB2084A03218B4332
S31520000460DBB21370BB1D1A78FB1D1B781100180018
S31520000470FFF786FFC046BD4602B080BD141002407D
S3152000048080B582B000AF0200FB1D1A70BB1D0A1C8E
S315200004901A70124B1B78DBB2104A40218B43DBB219
S315200004A01370BB1D1B781800FFF76CFE0B4B1B78D7
S315200004B0DBB201221343DBB2084A02218B43DBB2B3
S315200004C01370BB1D1A78FB1D1B7811001800FFF74F
S315200004D057FFC046BD4602B080BDC046141002403C
S315200004E080B582B000AF0200FB1D1A70FB1D1B7881
S315200004F01800FFF7E1FEFB1D1B781800FFF7DCFE56
S3152000050003001800BD4602B080BD80B500AF034B86
S31520000510034A1A60C046BD4680BDC0460010024050
S315200005205555555580B500AF1E4B1B78DBB21D4A7D
S3152000053040210B43DBB213701A4B1B78DBB2194AEE
S3152000054004218B43DBB213700A20FFF70AFE154BFA
S315200005501B78DBB2134A78218B43DBB21370114B25
S315200005601B78DBB20F4A20210B43DBB21370182114
S315200005703E20FFF759FF18213F20FFF755FF18218E
S31520000580C020FFF751FF18214020FFF74DFF18210B
S31520000590B820FFF749FF0020FFF7F4FDC046BD460F
S315200005A080BDC0461410024080B582B000AF002343
S315200005B07B601EE07B685BB24822524213435BB2EB
S315200005C0DBB218211800FFF72FFF18214020FFF774
S315200005D02BFF00233B6006E018210020FFF750FF89
S315200005E03B6801333B603B683F2BF5DD7B6801337D
S315200005F07B607B68072BDDDDC046BD4602B080BD33
S31520000600B0B584B000AF040008001100FB1D221C09
S315200006101A70BB1D021C1A707B1D0A1C1A70FB1D4A
S31520000620FA1D1278013A1A70BB1DBA1D1278013ACA
S315200006301A70FB1D1B785BB2DBB2DB09DAB2BB1D7D
S315200006401B783F2199429B415B42DBB21343DBB2CD
S31520000650002B6FD1BB1D1B780722134001229A4025
S315200006600D23FB181A70FB1D1B783F2B04D80F2374
S31520000670FB1808221A7008E00F23FB1810221A70A4
S31520000680FB1DFA1D1278403A1A70FB1D1B7840227A
S315200006901343DAB20F257B191B7819001000FFF7D8
S315200006A0C3FEBB1D1B78DB08DBB248225242134334
S315200006B0DAB27B191B7819001000FFF7B5FE0E235E
S315200006C0FC187B191B781800FFF70AFF030023701C
S315200006D0FB1D1B7840221343DAB27B191B781900C5
S315200006E01000FFF7A1FE7B1D1B78002B09D00E22E0
S315200006F0BB18B9180D22BA18097812780A431A704D
S315200007000DE00D23FB181B785BB2DB435BB20E2199
S315200007107A18127852B213405AB27B181A700F23E5
S31520000720FB181A780E23FB181B7811001800FFF708
S31520000730A7FE00E0C046BD4604B0B0BDF0B585B00A
S3152000074000AF78600E23FB1800221A7097E00D2365
S31520000750FB1800221A7086E00E23FB181A78796897
S315200007608023DB008A18D3181B785BB20D22BA18B7
S315200007701278012191400A0052B2D24352B213405C
S315200007805AB20B217B181A707B181B78002B64D069
S315200007900E23FB181B783F2B0AD80C23FB180822A4
S315200007A01A700F23FB180E22BA1812781A700AE054
S315200007B00C23FB1810221A700F23FB180E22BA18CE
S315200007C01278403A1A700E243B1919780D257B1998
S315200007D01A780A23FB187868C90041188A5C1A70AF
S315200007E00F22BB181B7840221343DAB20C26BB1902
S315200007F01B7819001000FFF717FE7B191B7848227B
S3152000080052421343DAB2BB191B7819001000FFF7C6
S315200008100BFEBB191A780A23FB181B781100180047
S31520000820FFF72EFE3B191A7879688023DB008A1899
S31520000830D3181B785AB27B191B78012199400B00DB
S315200008405BB2134359B23B191A78C8B27968802330
S31520000850DB008A18D318021C1A700D217B181A780F
S315200008607B1801321A700D23FB181B78072B00D832
S3152000087072E70E217B181A787B1801321A700E2324
S31520000880FB181B785BB2002B00DB60E7C046BD4639
S3152000089005B0F0BD90B585B000AF78600C001000B3
S315200008A01900FB1C221C1A70BB1C021C1A707B1C14
S315200008B00A1C1A70FB1C1B785BB2DBB2DB09DAB2AE
S315200008C0BB1C1B783F2199429B415B42DBB2134301
S315200008D0DBB2002B6CD1FB1C1B783F2B04D80F23DB
S315200008E0FB1808221A7003E00F23FB1810221A7037
S315200008F0BB1C1B780722134001229A400E23FB18AB
S315200009001A707B1C1B78002B16D0FB1C1B78BA1C7C
S315200009101278D208D0B201007A68DB00D318595C6D
S31520000920FB1C1B780E22BA1812780A43D1B27A68B9
S31520000930DB00D3180A1C1A547B1C1B78002B1BD1F6
S31520000940FB1C1B78BA1C1278D208D1B208007A6830
S31520000950DB00D3181B5C5BB20E22BA18127852B297
S31520000960D24352B213405AB2FB1C1B78D0B27A68DB
S31520000970DB00D318021C5A54FB1C1A787968802392
S31520000980DB008A18D3181B785AB2BB1C1B780121AE
S3152000099099400B005BB2134359B2FB1C1A78C8B2BC
S315200009A079688023DB008A18D318021C1A7000E0AD
S315200009B0C046BD4605B090BD80B584B000AF786016
S315200009C00023FB601BE079688023DB00FA688A1825
S315200009D0D31800221A700023BB600AE07A68FB68ED
S315200009E0DB00D218BB68D31800221A70BB6801330B
S315200009F0BB60BB68072BF1DDFB680133FB60FB683E
S31520000A007F2BE0DDC046BD4604B080BD80B584B0F6
S31520000A1000AFF860B9607A60FB68BA685A60FB6814
S31520000A207A689A60C046BD4604B080BD80B584B061
S31520000A3000AFF860B9607A60FB68BA68DA60FB6874
S31520000A407A681A61C046BD4604B080BD80B586B0BE
S31520000A5000AF786000237B6120E07B68DA687B68E2
S31520000A6019687B6904335B00CB1804331B78D318D1
S31520000A703B617B681A697B6819687B6904335B0074
S31520000A80CB1805331B78D318FB60F9683B69012224
S31520000A901800FFF7B5FD7B6901337B617B681B6816
S31520000AA01B687A699A42D8DBC046BD4606B080BD2F
S31520000AB080B584B000AF78600023FB601CE07B68C3
S31520000AC0DA687B681968FB6804335B00CB1804334B
S31520000AD01B78D0187B681A697B681968FB68043311
S31520000AE05B00CB1805331B78D31800221900FFF7BB
S31520000AF087FDFB680133FB607B681B681B68FA680F
S31520000B009A42DCDBC046BD4604B080BD80B582B0CB
S31520000B1000AF78607B681800FFF7CAFF7B68DA6849
S31520000B207B685B68D2187B68DA607B681A697B68A9
S31520000B309B68D2187B681A617B68DB685A1E134350
S31520000B40DB0FDAB27B68DB6801217B2B01DC00231B
S31520000B50191CCBB21343DBB2002B04D07B685B6835
S31520000B605A427B685A607B681B695A1E1343DB0F07
S31520000B70DAB27B681B6901213B2B01DC0023191C9F
S31520000B80CBB21343DBB2002B04D07B689B685A425E
S31520000B907B689A607B681800FFF758FFC046BD4601
S31520000BA002B080BD80B584B000AF0200BB1D1A80A4
S31520000BB00C4A0F217B1812781A70BB1D1B88DAB2DB
S31520000BC07B181B781343DAB208007B1804210A43EA
S31520000BD01A70044A01007B181B781370C046BD4664
S31520000BE004B080BD1410024080B584B000AF02006E
S31520000BF0BB1D1A800D4A0F217B1812781A70BB1D57
S31520000C001B885BB2DB435BB27A18127852B2134070
S31520000C105BB2042213435AB27B181A70034A7B181C
S31520000C201B781370C046BD4604B080BD1410024028
S31520000C3080B582B000AF0200FB1D1A70FFF76AFA7A
S31520000C404020FFF7AFFF054AFB1D1B78137040209D
S31520000C50FFF7CAFFC046BD4602B080BD1510024050
S31520000C6080B582B000AF4020FFF79CFF064AFB1DEF
S31520000C7012781A704020FFF7B7FFFB1D1B7818006B
S31520000C80BD4602B080BDC0461110024080B582B07C
S31520000C9000AF0200FB1D1A700120FFF7A5FF0220FE
S31520000CA0FFF7A2FFFB1D1B781800FFF7C1FFC04608
S31520000CB0BD4602B080BD80B582B000AF0200FB1DEC
S31520000CC01A700120FFF76EFF0220FFF78DFFFB1D34
S31520000CD01B781800FFF7ACFFC046BD4602B080BDAA
S31520000CE090B583B000AF0E4B1A680D4B1204120C50
S31520000CF01A600120FFF778FF0220FFF753FFFC1D43
S31520000D00FFF7AEFF03002370054B1A68044B054915
S31520000D100A431A60FB1D1B781800BD4603B090BD20
S31520000D20001002400000555590B583B000AF0E4B21
S31520000D301A680D4B1204120C1A600120FFF732FFBD
S31520000D400220FFF72FFFFC1DFFF78AFF0300237009
S31520000D50054B1A68044B05490A431A60FB1D1B788C
S31520000D601800BD4603B090BD001002400000555546
S31520000D7080B500AFC046FFF7B3FF03001A008023FB
S31520000D801340802BF7D00820FFF7EBF93820FFF728
S31520000D907DFF2820FFF7E5F90E20FFF777FF2820B3
S31520000DA0FFF7DFF90420FFF771FF2820FFF7D9F9B5
S31520000DB0C046BD4680BD80B582B000AF0200FB1D97
S31520000DC01A70C046FFF78CFF03001A0080231340D9
S31520000DD0802BF7D00820FFF7C4F9FB1D1B781800DD
S31520000DE0FFF769FF2B20FFF7BCF9C046BD4602B0CE
S31520000DF080BD80B584B000AF786039607B685A1EAC
S31520000E003B68013B9B01D318FB60FB685BB28022E9
S31520000E10524213435BB2DBB21800FFF737FFC046DE
S31520000E20BD4604B080BD80B500AF064B064A1A60A9
S31520000E30064B00221A80064B00221A60C046BD4689
S31520000E4080BDC0460010024055555555041002403D
S31520000E500810024080B500AF074B084A1A60084BBD
S31520000E6000221A80074B00221A60074BAA2212047E
S31520000E701A60C046BD4680BD000C0240555500553F
S31520000E80040C0240080C02400C0C024090B587B0BE
S31520000E9000AF1723FB1800221A703B1D274A13CADE
S31520000EA013C312681A601623FB1800221A703BE03F
S31520000EB01623FB181B7810229A4014217B181A70CF
S31520000EC01F4A7B181B7813701E4B1B78DAB215202D
S31520000ED03B180F210A401A703B181B78002B1DD097
S31520000EE00BE01522BB18BA18127852081A7017216F
S31520000EF07B181A787B1801321A701523FB181B7879
S31520000F0001221340EDD01623FB181B789A001723D5
S31520000F10FB181B78D3183A1DD35C0BE016217B18DF
S31520000F201A787B1801321A701623FB181B78032BAC
S31520000F30BED9FF231800BD4607B090BD101E002065
S31520000F40150C0240110C0240B0B586B000AF02006D
S31520000F50FB1D1A7008203B18064A32CA32C3126893
S31520000F601A60FB1D1B7804493A18D35C0B70BD46EA
S31520000F7006B0B0BD201E0020140C024080B582B001
S31520000F8000AF3B1D00221A70BB1D00221A807B1D5C
S31520000F9000221A7027E07B1D1B7810229A40FB1C2A
S31520000FA01A70164AFB1C1B781370154B1B78DBB284
S31520000FB00F221340DAB2BB1C1A70BB1C1B78DBB2A3
S31520000FC01A007B1D1B789B009A4013001AB2BB1D8A
S31520000FD000215B5E13431AB2BB1D1A807B1D1A7853
S31520000FE07B1D01321A707B1D1B78032BD3D9BB1DA9
S31520000FF01B881800BD4602B080BDC046150C0240B5
S31520001000110C02400000000000000000000000005B
S3152000101000000000000000000000000000000000AA
S31520001020000000000000000000000000000000009A
S31520001030000000000000000000000000000000008A
S31520001040000000000000000000000000000000007A
S31520001D900000000000000000000000000C00000011
S31520001DA004000000040000000001000201000101FF
S31520001DB001020103020002010202020303010301E0
S31520001DC000000000000000000000000000000000ED
S31520001DD09C1D002000000000000000000100000003
S31520001DE0010000004D0A0020B10A00200D0B002042
S31520001DF00D0A00202D0A0020506C61796572203171
S31520001E003A200000506C6179657220323A20000039
S31520001E100102030A0405060B0708090C0E000F0D24
S31520001E203F065B4F666D7D077F6F777C395E7971E4
S70520000000DA
